{
  "contractName": "Wallet",
  "abi": [
    {
      "inputs": [
        {
          "internalType": "address[]",
          "name": "_approvers",
          "type": "address[]"
        },
        {
          "internalType": "uint256",
          "name": "_quorum",
          "type": "uint256"
        }
      ],
      "stateMutability": "nonpayable",
      "type": "constructor"
    },
    {
      "inputs": [
        {
          "internalType": "address",
          "name": "",
          "type": "address"
        },
        {
          "internalType": "uint256",
          "name": "",
          "type": "uint256"
        }
      ],
      "name": "approvals",
      "outputs": [
        {
          "internalType": "bool",
          "name": "",
          "type": "bool"
        }
      ],
      "stateMutability": "view",
      "type": "function",
      "constant": true
    },
    {
      "inputs": [
        {
          "internalType": "uint256",
          "name": "",
          "type": "uint256"
        }
      ],
      "name": "approvers",
      "outputs": [
        {
          "internalType": "address",
          "name": "",
          "type": "address"
        }
      ],
      "stateMutability": "view",
      "type": "function",
      "constant": true
    },
    {
      "inputs": [],
      "name": "quorum",
      "outputs": [
        {
          "internalType": "uint256",
          "name": "",
          "type": "uint256"
        }
      ],
      "stateMutability": "view",
      "type": "function",
      "constant": true
    },
    {
      "inputs": [
        {
          "internalType": "uint256",
          "name": "",
          "type": "uint256"
        }
      ],
      "name": "transfers",
      "outputs": [
        {
          "internalType": "uint256",
          "name": "id",
          "type": "uint256"
        },
        {
          "internalType": "uint256",
          "name": "amount",
          "type": "uint256"
        },
        {
          "internalType": "address payable",
          "name": "to",
          "type": "address"
        },
        {
          "internalType": "uint256",
          "name": "approvals",
          "type": "uint256"
        },
        {
          "internalType": "bool",
          "name": "sent",
          "type": "bool"
        }
      ],
      "stateMutability": "view",
      "type": "function",
      "constant": true
    },
    {
      "stateMutability": "payable",
      "type": "receive",
      "payable": true
    },
    {
      "inputs": [
        {
          "internalType": "address",
          "name": "_approver",
          "type": "address"
        }
      ],
      "name": "addApprover",
      "outputs": [],
      "stateMutability": "nonpayable",
      "type": "function"
    },
    {
      "inputs": [],
      "name": "getApprovers",
      "outputs": [
        {
          "internalType": "address[]",
          "name": "",
          "type": "address[]"
        }
      ],
      "stateMutability": "view",
      "type": "function",
      "constant": true
    },
    {
      "inputs": [],
      "name": "getTransfers",
      "outputs": [
        {
          "components": [
            {
              "internalType": "uint256",
              "name": "id",
              "type": "uint256"
            },
            {
              "internalType": "uint256",
              "name": "amount",
              "type": "uint256"
            },
            {
              "internalType": "address payable",
              "name": "to",
              "type": "address"
            },
            {
              "internalType": "uint256",
              "name": "approvals",
              "type": "uint256"
            },
            {
              "internalType": "bool",
              "name": "sent",
              "type": "bool"
            }
          ],
          "internalType": "struct Wallet.Transfer[]",
          "name": "",
          "type": "tuple[]"
        }
      ],
      "stateMutability": "view",
      "type": "function",
      "constant": true
    },
    {
      "inputs": [
        {
          "internalType": "uint256",
          "name": "amount",
          "type": "uint256"
        },
        {
          "internalType": "address payable",
          "name": "to",
          "type": "address"
        }
      ],
      "name": "createTransfer",
      "outputs": [],
      "stateMutability": "nonpayable",
      "type": "function"
    },
    {
      "inputs": [
        {
          "internalType": "uint256",
          "name": "id",
          "type": "uint256"
        }
      ],
      "name": "approveTransfer",
      "outputs": [],
      "stateMutability": "nonpayable",
      "type": "function"
    }
  ],
  "bytecode": "0x60806040523480156200001157600080fd5b5060405162001403380380620014038339818101604052620000379190810190620001ef565b81600090805190602001906200004f9291906200005f565b5080600181905550505062000312565b828054828255906000526020600020908101928215620000db579160200282015b82811115620000da5782518260006101000a81548173ffffffffffffffffffffffffffffffffffffffff021916908373ffffffffffffffffffffffffffffffffffffffff1602179055509160200191906001019062000080565b5b509050620000ea9190620000ee565b5090565b6200013191905b808211156200012d57600081816101000a81549073ffffffffffffffffffffffffffffffffffffffff021916905550600101620000f5565b5090565b90565b6000815190506200014581620002de565b92915050565b600082601f8301126200015d57600080fd5b8151620001746200016e8262000277565b62000249565b915081818352602084019350602081019050838560208402820111156200019a57600080fd5b60005b83811015620001ce5781620001b3888262000134565b8452602084019350602083019250506001810190506200019d565b5050505092915050565b600081519050620001e981620002f8565b92915050565b600080604083850312156200020357600080fd5b600083015167ffffffffffffffff8111156200021e57600080fd5b6200022c858286016200014b565b92505060206200023f85828601620001d8565b9150509250929050565b6000604051905081810181811067ffffffffffffffff821117156200026d57600080fd5b8060405250919050565b600067ffffffffffffffff8211156200028f57600080fd5b602082029050602081019050919050565b6000620002ad82620002b4565b9050919050565b600073ffffffffffffffffffffffffffffffffffffffff82169050919050565b6000819050919050565b620002e981620002a0565b8114620002f557600080fd5b50565b6200030381620002d4565b81146200030f57600080fd5b50565b6110e180620003226000396000f3fe60806040526004361061008a5760003560e01c80639377d711116100595780639377d71114610140578063b646c19414610181578063cacca4a0146101aa578063d3650fb8146101d3578063ffabc6731461021057610091565b80631703a018146100965780632f65142c146100c15780634c12fa47146100ec5780636cb3e8ef1461011557610091565b3661009157005b600080fd5b3480156100a257600080fd5b506100ab61024d565b6040516100b89190610f1b565b60405180910390f35b3480156100cd57600080fd5b506100d6610253565b6040516100e39190610e7e565b60405180910390f35b3480156100f857600080fd5b50610113600480360361010e9190810190610b53565b610341565b005b34801561012157600080fd5b5061012a61051b565b6040516101379190610e5c565b60405180910390f35b34801561014c57600080fd5b5061016760048036036101629190810190610b2a565b6105a9565b604051610178959493929190610f36565b60405180910390f35b34801561018d57600080fd5b506101a860048036036101a39190810190610ac5565b610619565b005b3480156101b657600080fd5b506101d160048036036101cc9190810190610b2a565b61067f565b005b3480156101df57600080fd5b506101fa60048036036101f59190810190610b2a565b610a1b565b6040516102079190610e41565b60405180910390f35b34801561021c57600080fd5b5061023760048036036102329190810190610aee565b610a57565b6040516102449190610ea0565b60405180910390f35b60015481565b60606002805480602002602001604051908101604052809291908181526020016000905b8282101561033857838290600052602060002090600502016040518060a001604052908160008201548152602001600182015481526020016002820160009054906101000a900473ffffffffffffffffffffffffffffffffffffffff1673ffffffffffffffffffffffffffffffffffffffff1673ffffffffffffffffffffffffffffffffffffffff168152602001600382015481526020016004820160009054906101000a900460ff16151515158152505081526020019060010190610277565b50505050905090565b600080905060008090505b6000805490508110156103d6573373ffffffffffffffffffffffffffffffffffffffff166000828154811061037d57fe5b9060005260206000200160009054906101000a900473ffffffffffffffffffffffffffffffffffffffff1673ffffffffffffffffffffffffffffffffffffffff1614156103c957600191505b808060010191505061034c565b50600115158115151461041e576040517f08c379a000000000000000000000000000000000000000000000000000000000815260040161041590610edb565b60405180910390fd5b60026040518060a0016040528060028054905081526020018581526020018473ffffffffffffffffffffffffffffffffffffffff16815260200160008152602001600015158152509080600181540180825580915050600190039060005260206000209060050201600090919091909150600082015181600001556020820151816001015560408201518160020160006101000a81548173ffffffffffffffffffffffffffffffffffffffff021916908373ffffffffffffffffffffffffffffffffffffffff1602179055506060820151816003015560808201518160040160006101000a81548160ff0219169083151502179055505050505050565b6060600080548060200260200160405190810160405280929190818152602001828054801561059f57602002820191906000526020600020905b8160009054906101000a900473ffffffffffffffffffffffffffffffffffffffff1673ffffffffffffffffffffffffffffffffffffffff1681526020019060010190808311610555575b5050505050905090565b600281815481106105b657fe5b90600052602060002090600502016000915090508060000154908060010154908060020160009054906101000a900473ffffffffffffffffffffffffffffffffffffffff16908060030154908060040160009054906101000a900460ff16905085565b6000819080600181540180825580915050600190039060005260206000200160009091909190916101000a81548173ffffffffffffffffffffffffffffffffffffffff021916908373ffffffffffffffffffffffffffffffffffffffff16021790555050565b600080905060008090505b600080549050811015610714573373ffffffffffffffffffffffffffffffffffffffff16600082815481106106bb57fe5b9060005260206000200160009054906101000a900473ffffffffffffffffffffffffffffffffffffffff1673ffffffffffffffffffffffffffffffffffffffff16141561070757600191505b808060010191505061068a565b50600115158115151461075c576040517f08c379a000000000000000000000000000000000000000000000000000000000815260040161075390610edb565b60405180910390fd5b600015156002838154811061076d57fe5b906000526020600020906005020160040160009054906101000a900460ff161515146107ce576040517f08c379a00000000000000000000000000000000000000000000000000000000081526004016107c590610efb565b60405180910390fd5b60001515600360003373ffffffffffffffffffffffffffffffffffffffff1673ffffffffffffffffffffffffffffffffffffffff168152602001908152602001600020600084815260200190815260200160002060009054906101000a900460ff16151514610872576040517f08c379a000000000000000000000000000000000000000000000000000000000815260040161086990610ebb565b60405180910390fd5b6001600360003373ffffffffffffffffffffffffffffffffffffffff1673ffffffffffffffffffffffffffffffffffffffff168152602001908152602001600020600084815260200190815260200160002060006101000a81548160ff021916908315150217905550600282815481106108e857fe5b9060005260206000209060050201600301600081548092919060010191905055506001546002838154811061091957fe5b90600052602060002090600502016003015410610a175760016002838154811061093f57fe5b906000526020600020906005020160040160006101000a81548160ff02191690831515021790555060006002838154811061097657fe5b906000526020600020906005020160020160009054906101000a900473ffffffffffffffffffffffffffffffffffffffff1690506000600284815481106109b957fe5b90600052602060002090600502016001015490508173ffffffffffffffffffffffffffffffffffffffff166108fc829081150290604051600060405180830381858888f19350505050158015610a13573d6000803e3d6000fd5b5050505b5050565b60008181548110610a2857fe5b906000526020600020016000915054906101000a900473ffffffffffffffffffffffffffffffffffffffff1681565b60036020528160005260406000206020528060005260406000206000915091509054906101000a900460ff1681565b600081359050610a9581611066565b92915050565b600081359050610aaa8161107d565b92915050565b600081359050610abf81611094565b92915050565b600060208284031215610ad757600080fd5b6000610ae584828501610a86565b91505092915050565b60008060408385031215610b0157600080fd5b6000610b0f85828601610a86565b9250506020610b2085828601610ab0565b9150509250929050565b600060208284031215610b3c57600080fd5b6000610b4a84828501610ab0565b91505092915050565b60008060408385031215610b6657600080fd5b6000610b7485828601610ab0565b9250506020610b8585828601610a9b565b9150509250929050565b6000610b9b8383610bdd565b60208301905092915050565b6000610bb38383610dbb565b60a08301905092915050565b610bc88161101e565b82525050565b610bd78161101e565b82525050565b610be68161100c565b82525050565b610bf58161100c565b82525050565b6000610c0682610fa9565b610c108185610fd9565b9350610c1b83610f89565b8060005b83811015610c4c578151610c338882610b8f565b9750610c3e83610fbf565b925050600181019050610c1f565b5085935050505092915050565b6000610c6482610fb4565b610c6e8185610fea565b9350610c7983610f99565b8060005b83811015610caa578151610c918882610ba7565b9750610c9c83610fcc565b925050600181019050610c7d565b5085935050505092915050565b610cc081611030565b82525050565b610ccf81611030565b82525050565b6000610ce2602183610ffb565b91507f43616e6e6f7420617070726f766520746865207472616e73666572207477696360008301527f65000000000000000000000000000000000000000000000000000000000000006020830152604082019050919050565b6000610d48601583610ffb565b91507f6f6e6c7920617070726f76657220616c6c6f77656400000000000000000000006000830152602082019050919050565b6000610d88601e83610ffb565b91507f5472616e736665722068617320616c7265616479206265656e2073656e7400006000830152602082019050919050565b60a082016000820151610dd16000850182610e23565b506020820151610de46020850182610e23565b506040820151610df76040850182610bbf565b506060820151610e0a6060850182610e23565b506080820151610e1d6080850182610cb7565b50505050565b610e2c8161105c565b82525050565b610e3b8161105c565b82525050565b6000602082019050610e566000830184610bec565b92915050565b60006020820190508181036000830152610e768184610bfb565b905092915050565b60006020820190508181036000830152610e988184610c59565b905092915050565b6000602082019050610eb56000830184610cc6565b92915050565b60006020820190508181036000830152610ed481610cd5565b9050919050565b60006020820190508181036000830152610ef481610d3b565b9050919050565b60006020820190508181036000830152610f1481610d7b565b9050919050565b6000602082019050610f306000830184610e32565b92915050565b600060a082019050610f4b6000830188610e32565b610f586020830187610e32565b610f656040830186610bce565b610f726060830185610e32565b610f7f6080830184610cc6565b9695505050505050565b6000819050602082019050919050565b6000819050602082019050919050565b600081519050919050565b600081519050919050565b6000602082019050919050565b6000602082019050919050565b600082825260208201905092915050565b600082825260208201905092915050565b600082825260208201905092915050565b60006110178261103c565b9050919050565b60006110298261103c565b9050919050565b60008115159050919050565b600073ffffffffffffffffffffffffffffffffffffffff82169050919050565b6000819050919050565b61106f8161100c565b811461107a57600080fd5b50565b6110868161101e565b811461109157600080fd5b50565b61109d8161105c565b81146110a857600080fd5b5056fea2646970667358221220af8ab69c2c920b91255eadc3ecdac83c3483a2c19afdd2d6745fa70c07f0f96b64736f6c63430006000033",
  "source": "pragma solidity 0.6.0;\npragma experimental ABIEncoderV2;\n\ncontract Wallet {\n\n    address[] public approvers;\n    uint public quorum;\n\n    struct Transfer {\n       uint id;\n       uint amount;\n       address payable to;\n       uint approvals;\n       bool sent;\n    }\n    Transfer[] public transfers;\n    mapping(address => mapping(uint => bool)) public approvals;\n\n\n    constructor(address[] memory _approvers, uint _quorum) public {\n        approvers = _approvers;\n        quorum = _quorum;\n    }\n\n\n    function addApprover(address _approver) external {\n        approvers.push(_approver);\n    }\n\n\n    function getApprovers() external view returns(address[] memory) {\n        return approvers;\n    }\n\n\n    function getTransfers() external view returns(Transfer[] memory) {\n        return transfers;\n    }\n\n    function createTransfer(uint amount, address payable to) external onlyApprover() {\n        transfers.push(Transfer(\n            transfers.length,\n            amount,\n            to,\n            0,\n            false\n        ));\n    }\n\n    function approveTransfer(uint id) external onlyApprover() {\n        require(transfers[id].sent == false, 'Transfer has already been sent');\n        require(approvals[msg.sender][id] == false, 'Cannot approve the transfer twice');\n        approvals[msg.sender][id] = true;\n        transfers[id].approvals++;\n\n        if(transfers[id].approvals >= quorum) {\n            transfers[id].sent = true;\n            address payable to = transfers[id].to;\n            uint amount = transfers[id].amount;\n            to.transfer(amount);\n        }\n    }\n\n\n    receive() external payable {}\n\n    modifier onlyApprover() {\n        bool allowed = false;\n        for(uint i = 0; i < approvers.length; i++) {\n            if(approvers[i] == msg.sender) {\n                allowed = true;\n            }\n        }\n        require(allowed == true, 'only approver allowed');\n        _;\n\n    }\n}",
  "sourcePath": "/home/servatj/personal/wallet/contracts/Wallet.sol",
  "compiler": {
    "name": "solc",
    "version": "0.6.0+commit.26b70077.Emscripten.clang"
  },
  "schemaVersion": "3.4.2",
  "updatedAt": "2021-08-10T22:45:41.651Z",
  "networkType": "ethereum",
  "devdoc": {
    "methods": {}
  },
  "userdoc": {
    "methods": {}
  }
}