{
  "contractName": "Wallet",
  "abi": [
    {
      "inputs": [
        {
          "internalType": "address[]",
          "name": "_approvers",
          "type": "address[]"
        },
        {
          "internalType": "uint256",
          "name": "_quorum",
          "type": "uint256"
        }
      ],
      "stateMutability": "nonpayable",
      "type": "constructor"
    },
    {
      "inputs": [
        {
          "internalType": "address",
          "name": "",
          "type": "address"
        },
        {
          "internalType": "uint256",
          "name": "",
          "type": "uint256"
        }
      ],
      "name": "approvals",
      "outputs": [
        {
          "internalType": "bool",
          "name": "",
          "type": "bool"
        }
      ],
      "stateMutability": "view",
      "type": "function",
      "constant": true
    },
    {
      "inputs": [
        {
          "internalType": "uint256",
          "name": "",
          "type": "uint256"
        }
      ],
      "name": "approvers",
      "outputs": [
        {
          "internalType": "address",
          "name": "",
          "type": "address"
        }
      ],
      "stateMutability": "view",
      "type": "function",
      "constant": true
    },
    {
      "inputs": [],
      "name": "quorum",
      "outputs": [
        {
          "internalType": "uint256",
          "name": "",
          "type": "uint256"
        }
      ],
      "stateMutability": "view",
      "type": "function",
      "constant": true
    },
    {
      "inputs": [
        {
          "internalType": "uint256",
          "name": "",
          "type": "uint256"
        }
      ],
      "name": "transfers",
      "outputs": [
        {
          "internalType": "uint256",
          "name": "id",
          "type": "uint256"
        },
        {
          "internalType": "uint256",
          "name": "amount",
          "type": "uint256"
        },
        {
          "internalType": "address payable",
          "name": "to",
          "type": "address"
        },
        {
          "internalType": "uint256",
          "name": "approvals",
          "type": "uint256"
        },
        {
          "internalType": "bool",
          "name": "sent",
          "type": "bool"
        }
      ],
      "stateMutability": "view",
      "type": "function",
      "constant": true
    },
    {
      "stateMutability": "payable",
      "type": "receive",
      "payable": true
    },
    {
      "inputs": [
        {
          "internalType": "address",
          "name": "_approver",
          "type": "address"
        }
      ],
      "name": "addApprover",
      "outputs": [],
      "stateMutability": "nonpayable",
      "type": "function"
    },
    {
      "inputs": [],
      "name": "getApprovers",
      "outputs": [
        {
          "internalType": "address[]",
          "name": "",
          "type": "address[]"
        }
      ],
      "stateMutability": "view",
      "type": "function",
      "constant": true
    },
    {
      "inputs": [],
      "name": "getTransfers",
      "outputs": [
        {
          "components": [
            {
              "internalType": "uint256",
              "name": "id",
              "type": "uint256"
            },
            {
              "internalType": "uint256",
              "name": "amount",
              "type": "uint256"
            },
            {
              "internalType": "address payable",
              "name": "to",
              "type": "address"
            },
            {
              "internalType": "uint256",
              "name": "approvals",
              "type": "uint256"
            },
            {
              "internalType": "bool",
              "name": "sent",
              "type": "bool"
            }
          ],
          "internalType": "struct Wallet.Transfer[]",
          "name": "",
          "type": "tuple[]"
        }
      ],
      "stateMutability": "view",
      "type": "function",
      "constant": true
    },
    {
      "inputs": [
        {
          "internalType": "uint256",
          "name": "amount",
          "type": "uint256"
        },
        {
          "internalType": "address payable",
          "name": "to",
          "type": "address"
        }
      ],
      "name": "createTransfer",
      "outputs": [],
      "stateMutability": "nonpayable",
      "type": "function"
    },
    {
      "inputs": [
        {
          "internalType": "uint256",
          "name": "id",
          "type": "uint256"
        }
      ],
      "name": "approveTransfer",
      "outputs": [],
      "stateMutability": "nonpayable",
      "type": "function"
    }
  ],
  "bytecode": "0x60806040523480156200001157600080fd5b5060405162001616380380620016168339818101604052810190620000379190620001dd565b81600090805190602001906200004f9291906200005f565b508060018190555050506200033b565b828054828255906000526020600020908101928215620000db579160200282015b82811115620000da5782518260006101000a81548173ffffffffffffffffffffffffffffffffffffffff021916908373ffffffffffffffffffffffffffffffffffffffff1602179055509160200191906001019062000080565b5b509050620000ea9190620000ee565b5090565b5b8082111562000109576000816000905550600101620000ef565b5090565b6000620001246200011e846200026b565b62000237565b905080838252602082019050828560208602820111156200014457600080fd5b60005b858110156200017857816200015d888262000182565b84526020840193506020830192505060018101905062000147565b5050509392505050565b600081519050620001938162000307565b92915050565b600082601f830112620001ab57600080fd5b8151620001bd8482602086016200010d565b91505092915050565b600081519050620001d78162000321565b92915050565b60008060408385031215620001f157600080fd5b600083015167ffffffffffffffff8111156200020c57600080fd5b6200021a8582860162000199565b92505060206200022d85828601620001c6565b9150509250929050565b6000604051905081810181811067ffffffffffffffff82111715620002615762000260620002d8565b5b8060405250919050565b600067ffffffffffffffff821115620002895762000288620002d8565b5b602082029050602081019050919050565b6000620002a782620002ae565b9050919050565b600073ffffffffffffffffffffffffffffffffffffffff82169050919050565b6000819050919050565b7f4e487b7100000000000000000000000000000000000000000000000000000000600052604160045260246000fd5b62000312816200029a565b81146200031e57600080fd5b50565b6200032c81620002ce565b81146200033857600080fd5b50565b6112cb806200034b6000396000f3fe60806040526004361061008a5760003560e01c80639377d711116100595780639377d71114610140578063b646c19414610181578063cacca4a0146101aa578063d3650fb8146101d3578063ffabc6731461021057610091565b80631703a018146100965780632f65142c146100c15780634c12fa47146100ec5780636cb3e8ef1461011557610091565b3661009157005b600080fd5b3480156100a257600080fd5b506100ab61024d565b6040516100b8919061108d565b60405180910390f35b3480156100cd57600080fd5b506100d6610253565b6040516100e39190610ff0565b60405180910390f35b3480156100f857600080fd5b50610113600480360381019061010e9190610cc5565b610341565b005b34801561012157600080fd5b5061012a610547565b6040516101379190610fce565b60405180910390f35b34801561014c57600080fd5b5061016760048036038101906101629190610c9c565b6105d5565b6040516101789594939291906110a8565b60405180910390f35b34801561018d57600080fd5b506101a860048036038101906101a39190610c37565b610648565b005b3480156101b657600080fd5b506101d160048036038101906101cc9190610c9c565b6106ae565b005b3480156101df57600080fd5b506101fa60048036038101906101f59190610c9c565b610b8a565b6040516102079190610fb3565b60405180910390f35b34801561021c57600080fd5b5061023760048036038101906102329190610c60565b610bc9565b6040516102449190611012565b60405180910390f35b60015481565b60606002805480602002602001604051908101604052809291908181526020016000905b8282101561033857838290600052602060002090600502016040518060a001604052908160008201548152602001600182015481526020016002820160009054906101000a900473ffffffffffffffffffffffffffffffffffffffff1673ffffffffffffffffffffffffffffffffffffffff1673ffffffffffffffffffffffffffffffffffffffff168152602001600382015481526020016004820160009054906101000a900460ff16151515158152505081526020019060010190610277565b50505050905090565b6000805b600080549050811015610402573373ffffffffffffffffffffffffffffffffffffffff16600082815481106103a3577f4e487b7100000000000000000000000000000000000000000000000000000000600052603260045260246000fd5b9060005260206000200160009054906101000a900473ffffffffffffffffffffffffffffffffffffffff1673ffffffffffffffffffffffffffffffffffffffff1614156103ef57600191505b80806103fa906111d8565b915050610345565b50600115158115151461044a576040517f08c379a00000000000000000000000000000000000000000000000000000000081526004016104419061104d565b60405180910390fd5b60026040518060a0016040528060028054905081526020018581526020018473ffffffffffffffffffffffffffffffffffffffff16815260200160008152602001600015158152509080600181540180825580915050600190039060005260206000209060050201600090919091909150600082015181600001556020820151816001015560408201518160020160006101000a81548173ffffffffffffffffffffffffffffffffffffffff021916908373ffffffffffffffffffffffffffffffffffffffff1602179055506060820151816003015560808201518160040160006101000a81548160ff0219169083151502179055505050505050565b606060008054806020026020016040519081016040528092919081815260200182805480156105cb57602002820191906000526020600020905b8160009054906101000a900473ffffffffffffffffffffffffffffffffffffffff1673ffffffffffffffffffffffffffffffffffffffff1681526020019060010190808311610581575b5050505050905090565b600281815481106105e557600080fd5b90600052602060002090600502016000915090508060000154908060010154908060020160009054906101000a900473ffffffffffffffffffffffffffffffffffffffff16908060030154908060040160009054906101000a900460ff16905085565b6000819080600181540180825580915050600190039060005260206000200160009091909190916101000a81548173ffffffffffffffffffffffffffffffffffffffff021916908373ffffffffffffffffffffffffffffffffffffffff16021790555050565b6000805b60008054905081101561076f573373ffffffffffffffffffffffffffffffffffffffff1660008281548110610710577f4e487b7100000000000000000000000000000000000000000000000000000000600052603260045260246000fd5b9060005260206000200160009054906101000a900473ffffffffffffffffffffffffffffffffffffffff1673ffffffffffffffffffffffffffffffffffffffff16141561075c57600191505b8080610767906111d8565b9150506106b2565b5060011515811515146107b7576040517f08c379a00000000000000000000000000000000000000000000000000000000081526004016107ae9061104d565b60405180910390fd5b60001515600283815481106107f5577f4e487b7100000000000000000000000000000000000000000000000000000000600052603260045260246000fd5b906000526020600020906005020160040160009054906101000a900460ff16151514610856576040517f08c379a000000000000000000000000000000000000000000000000000000000815260040161084d9061106d565b60405180910390fd5b60001515600360003373ffffffffffffffffffffffffffffffffffffffff1673ffffffffffffffffffffffffffffffffffffffff168152602001908152602001600020600084815260200190815260200160002060009054906101000a900460ff161515146108fa576040517f08c379a00000000000000000000000000000000000000000000000000000000081526004016108f19061102d565b60405180910390fd5b6001600360003373ffffffffffffffffffffffffffffffffffffffff1673ffffffffffffffffffffffffffffffffffffffff168152602001908152602001600020600084815260200190815260200160002060006101000a81548160ff0219169083151502179055506002828154811061099d577f4e487b7100000000000000000000000000000000000000000000000000000000600052603260045260246000fd5b906000526020600020906005020160030160008154809291906109bf906111d8565b919050555060015460028381548110610a01577f4e487b7100000000000000000000000000000000000000000000000000000000600052603260045260246000fd5b90600052602060002090600502016003015410610b8657600160028381548110610a54577f4e487b7100000000000000000000000000000000000000000000000000000000600052603260045260246000fd5b906000526020600020906005020160040160006101000a81548160ff021916908315150217905550600060028381548110610ab8577f4e487b7100000000000000000000000000000000000000000000000000000000600052603260045260246000fd5b906000526020600020906005020160020160009054906101000a900473ffffffffffffffffffffffffffffffffffffffff169050600060028481548110610b28577f4e487b7100000000000000000000000000000000000000000000000000000000600052603260045260246000fd5b90600052602060002090600502016001015490508173ffffffffffffffffffffffffffffffffffffffff166108fc829081150290604051600060405180830381858888f19350505050158015610b82573d6000803e3d6000fd5b5050505b5050565b60008181548110610b9a57600080fd5b906000526020600020016000915054906101000a900473ffffffffffffffffffffffffffffffffffffffff1681565b60036020528160005260406000206020528060005260406000206000915091509054906101000a900460ff1681565b600081359050610c0781611250565b92915050565b600081359050610c1c81611267565b92915050565b600081359050610c318161127e565b92915050565b600060208284031215610c4957600080fd5b6000610c5784828501610bf8565b91505092915050565b60008060408385031215610c7357600080fd5b6000610c8185828601610bf8565b9250506020610c9285828601610c22565b9150509250929050565b600060208284031215610cae57600080fd5b6000610cbc84828501610c22565b91505092915050565b60008060408385031215610cd857600080fd5b6000610ce685828601610c22565b9250506020610cf785828601610c0d565b9150509250929050565b6000610d0d8383610d4f565b60208301905092915050565b6000610d258383610f2d565b60a08301905092915050565b610d3a81611190565b82525050565b610d4981611190565b82525050565b610d588161117e565b82525050565b610d678161117e565b82525050565b6000610d788261111b565b610d82818561114b565b9350610d8d836110fb565b8060005b83811015610dbe578151610da58882610d01565b9750610db083611131565b925050600181019050610d91565b5085935050505092915050565b6000610dd682611126565b610de0818561115c565b9350610deb8361110b565b8060005b83811015610e1c578151610e038882610d19565b9750610e0e8361113e565b925050600181019050610def565b5085935050505092915050565b610e32816111a2565b82525050565b610e41816111a2565b82525050565b6000610e5460218361116d565b91507f43616e6e6f7420617070726f766520746865207472616e73666572207477696360008301527f65000000000000000000000000000000000000000000000000000000000000006020830152604082019050919050565b6000610eba60158361116d565b91507f6f6e6c7920617070726f76657220616c6c6f77656400000000000000000000006000830152602082019050919050565b6000610efa601e8361116d565b91507f5472616e736665722068617320616c7265616479206265656e2073656e7400006000830152602082019050919050565b60a082016000820151610f436000850182610f95565b506020820151610f566020850182610f95565b506040820151610f696040850182610d31565b506060820151610f7c6060850182610f95565b506080820151610f8f6080850182610e29565b50505050565b610f9e816111ce565b82525050565b610fad816111ce565b82525050565b6000602082019050610fc86000830184610d5e565b92915050565b60006020820190508181036000830152610fe88184610d6d565b905092915050565b6000602082019050818103600083015261100a8184610dcb565b905092915050565b60006020820190506110276000830184610e38565b92915050565b6000602082019050818103600083015261104681610e47565b9050919050565b6000602082019050818103600083015261106681610ead565b9050919050565b6000602082019050818103600083015261108681610eed565b9050919050565b60006020820190506110a26000830184610fa4565b92915050565b600060a0820190506110bd6000830188610fa4565b6110ca6020830187610fa4565b6110d76040830186610d40565b6110e46060830185610fa4565b6110f16080830184610e38565b9695505050505050565b6000819050602082019050919050565b6000819050602082019050919050565b600081519050919050565b600081519050919050565b6000602082019050919050565b6000602082019050919050565b600082825260208201905092915050565b600082825260208201905092915050565b600082825260208201905092915050565b6000611189826111ae565b9050919050565b600061119b826111ae565b9050919050565b60008115159050919050565b600073ffffffffffffffffffffffffffffffffffffffff82169050919050565b6000819050919050565b60006111e3826111ce565b91507fffffffffffffffffffffffffffffffffffffffffffffffffffffffffffffffff82141561121657611215611221565b5b600182019050919050565b7f4e487b7100000000000000000000000000000000000000000000000000000000600052601160045260246000fd5b6112598161117e565b811461126457600080fd5b50565b61127081611190565b811461127b57600080fd5b50565b611287816111ce565b811461129257600080fd5b5056fea26469706673582212201ca8005a7bbde6abc72c7843295cede7b6d1c61380dd18865dc391525a3389a864736f6c63430008000033",
  "immutableReferences": {},
  "source": "pragma solidity 0.8.0;\n\ncontract Wallet {\n\n    address[] public approvers;\n    uint public quorum;\n\n    struct Transfer {\n       uint id;\n       uint amount;\n       address payable to;\n       uint approvals;\n       bool sent;\n    }\n    Transfer[] public transfers;\n    mapping(address => mapping(uint => bool)) public approvals;\n\n\n    constructor(address[] memory _approvers, uint _quorum) public {\n        approvers = _approvers;\n        quorum = _quorum;\n    }\n\n\n    function addApprover(address _approver) external {\n        approvers.push(_approver);\n    }\n\n\n    function getApprovers() external view returns(address[] memory) {\n        return approvers;\n    }\n\n\n    function getTransfers() external view returns(Transfer[] memory) {\n        return transfers;\n    }\n\n    function createTransfer(uint amount, address payable to) external onlyApprover() {\n        transfers.push(Transfer(\n            transfers.length,\n            amount,\n            to,\n            0,\n            false\n        ));\n    }\n\n    function approveTransfer(uint id) external onlyApprover() {\n        require(transfers[id].sent == false, 'Transfer has already been sent');\n        require(approvals[msg.sender][id] == false, 'Cannot approve the transfer twice');\n        approvals[msg.sender][id] = true;\n        transfers[id].approvals++;\n\n        if(transfers[id].approvals >= quorum) {\n            transfers[id].sent = true;\n            address payable to = transfers[id].to;\n            uint amount = transfers[id].amount;\n            to.transfer(amount);\n        }\n    }\n\n\n    receive() external payable {}\n\n    modifier onlyApprover() {\n        bool allowed = false;\n        for(uint i = 0; i < approvers.length; i++) {\n            if(approvers[i] == msg.sender) {\n                allowed = true;\n            }\n        }\n        require(allowed == true, 'only approver allowed');\n        _;\n\n    }\n}",
  "sourcePath": "/home/servatj/personal/wallet/contracts/Wallet.sol",
  "compiler": {
    "name": "solc",
    "version": "0.8.0+commit.c7dfd78e.Emscripten.clang"
  },
  "schemaVersion": "3.4.2",
  "updatedAt": "2021-09-02T10:59:11.712Z",
  "networkType": "ethereum",
  "devdoc": {
    "kind": "dev",
    "methods": {},
    "version": 1
  },
  "userdoc": {
    "kind": "user",
    "methods": {},
    "version": 1
  }
}